:020000040800F2
:10000000000002205D2E0008D1150008D31500085D
:10001000D5150008D7150008D91500080000000004
:10002000000000000000000000000000DB150008D8
:10003000DD15000800000000DF150008E1150008CC
:10004000AD2E0008AD2E0008AD2E0008AD2E000824
:10005000AD2E0008AD2E0008AD2E0008AD2E000814
:10006000AD2E0008AD2E0008AD2E0008AD2E000804
:10007000AD2E0008AD2E0008AD2E0008AD2E0008F4
:10008000AD2E0008AD2E0008AD2E0008AD2E0008E4
:10009000AD2E0008AD2E0008AD2E0008AD2E0008D4
:1000A000AD2E0008AD2E0008AD2E0008AD2E0008C4
:1000B000AD2E0008AD2E0008AD2E0008AD2E0008B4
:1000C000AD2E0008AD2E0008AD2E0008AD2E0008A4
:1000D000AD2E0008AD2E0008AD2E0008AD2E000894
:1000E000AD2E0008AD2E0008AD2E0008AD2E000884
:1000F000AD2E0008AD2E0008AD2E0008AD2E000874
:10010000AD2E0008AD2E0008AD2E0008AD2E000863
:10011000AD2E0008AD2E0008AD2E0008E915000830
:10012000AD2E0008AD2E0008AD2E0008AD2E000843
:10013000AD2E00080000000000000000AD2E0008F9
:10014000AD2E0008AD2E0008AD2E0008AD2E000823
:10015000AD2E0008AD2E0008AD2E0008AD2E000813
:10016000AD2E0008AD2E0008AD2E0008AD2E000803
:10017000AD2E0008AD2E0008AD2E000800000000D6
:1001800000000000AD2E000800000000000000008C
:10019000AD2E00080000000000000000AD2E000899
:1001A000000000000000000000000000AD2E00086C
:1001B000AD2E0008AD2E0008AD2E0008AD2E0008B3
:0401C000AD2E000858
:1002000090F800F06DE9024520F007016FF0000C56
:1002100010F0070491F820F040F049804FF00004FE
:100220006FF00700D1E9002391F840F000F10800D9
:1002300082FA4CF2A4FA8CF283FA4CF3A2FA8CF311
:100240004BBBD1E9022382FA4CF200F10800A4FA78
:100250008CF283FA4CF3A2FA8CF3E3B9D1E90423CC
:1002600082FA4CF200F10800A4FA8CF283FA4CF303
:10027000A2FA8CF37BB9D1E9062301F1200182FABD
:100280004CF200F10800A4FA8CF283FA4CF3A2FAC3
:100290008CF3002BC6D0002A04BF04301A4612BAD1
:1002A000B2FA82F2FDE8024500EBD2007047D1E9D4
:1002B000002304F00305C4F100004FEAC50514F063
:1002C000040F91F840F00CFA05F562EA05021CBF34
:1002D00063EA050362464FF00004A9E7000000004E
:1002E00001F0FF01102A2BDB10F0070F08D010F8E7
:1002F000013B013A8B422DD010F0070F42B3F6D1EB
:10030000F0B441EA012141EA014122F007047FF003
:1003100000070023F0E80256083C85EA010586EA5A
:10032000010685FA47F5A3FA87F586FA47F6A5FA96
:1003300087F68EB9EED1F0BC01F0FF0102F00702A2
:1003400032B110F8013B013A83EA010313B1F8D14D
:100350000020704701387047002D06BF354603382E
:10036000073815F0010F07D1013015F4807F02BF67
:10037000013015F4C03F0130F0BC0138704700BFB8
:10038000844641EA000313F003036DD1403A41D3A0
:1003900051F8043B40F8043B51F8043B40F8043B5F
:1003A00051F8043B40F8043B51F8043B40F8043B4F
:1003B00051F8043B40F8043B51F8043B40F8043B3F
:1003C00051F8043B40F8043B51F8043B40F8043B2F
:1003D00051F8043B40F8043B51F8043B40F8043B1F
:1003E00051F8043B40F8043B51F8043B40F8043B0F
:1003F00051F8043B40F8043B51F8043B40F8043BFF
:1004000051F8043B40F8043B51F8043B40F8043BEE
:10041000403ABDD2303211D351F8043B40F8043B8E
:1004200051F8043B40F8043B51F8043B40F8043BCE
:1004300051F8043B40F8043B103AEDD20C3205D39E
:1004400051F8043B40F8043B043AF9D2043208D096
:10045000D2071CBF11F8013B00F8013B01D30B8808
:1004600003806046704700BF082A13D38B078DD0E6
:1004700010F003038AD0C3F10403D21ADB071CBFB8
:1004800011F8013B00F8013B80D331F8023B20F822
:10049000023B7BE7043AD9D3013A11F8013B00F85B
:1004A000013BF9D20B7803704B7843708B788370E3
:1004B0006046704781F0004102E000BF83F00043D6
:1004C00030B54FEA41044FEA430594EA050F08BFEF
:1004D00090EA020F1FBF54EA000C55EA020C7FEAB3
:1004E000645C7FEA655C00F0E2804FEA5454D4EB30
:1004F0005555B8BF6D420CDD2C4480EA020281EAFA
:10050000030382EA000083EA010180EA020281EA31
:100510000303362D88BF30BD11F0004F4FEA013183
:100520004FF4801C4CEA113102D0404261EB410192
:1005300013F0004F4FEA03334CEA133302D0524218
:1005400063EB430394EA050F00F0A780A4F10104D4
:10055000D5F1200E0DDB02FA0EFC22FA05F280180E
:1005600041F1000103FA0EF2801843FA05F35941F4
:100570000EE0A5F120050EF1200E012A03FA0EFC73
:1005800028BF4CF0020C43FA05F3C01851EBE3719D
:1005900001F0004507D54FF0000EDCF1000C7EEBBA
:1005A00000006EEB0101B1F5801F1BD3B1F5001FF8
:1005B0000CD349085FEA30004FEA3C0C04F1010417
:1005C0004FEA445212F5800F80F09A80BCF1004F40
:1005D00008BF5FEA500C50F1000041EB045141EAC2
:1005E000050130BD5FEA4C0C404141EB0101013C8B
:1005F00028BFB1F5801FE9D291F0000F04BF01467A
:100600000020B1FA81F308BF2033A3F10B03B3F14B
:1006100020020CDA0C3208DD02F1140CC2F10C02DB
:1006200001FA0CF021FA02F10CE002F11402D8BF39
:10063000C2F1200C01FA02F120FA0CFCDCBF41EA05
:100640000C019040E41AA2BF01EB0451294330BDD4
:100650006FEA04041F3C1CDA0C340EDC04F11404B1
:10066000C4F1200220FA04F001FA02F340EA030088
:1006700021FA04F345EA030130BDC4F10C04C4F1CE
:10068000200220FA02F001FA04F340EA03002946AE
:1006900030BD21FA04F0294630BD94F0000F83F4F8
:1006A000801306BF81F480110134013D4EE77FEADB
:1006B000645C18BF7FEA655C29D094EA050F08BF27
:1006C00090EA020F05D054EA000C04BF1946104608
:1006D00030BD91EA030F1EBF0021002030BD5FEA4C
:1006E000545C05D14000494128BF41F0004130BD74
:1006F00014F580043CBF01F5801130BD01F00045C8
:1007000045F0FE4141F470014FF0000030BD7FEA3A
:10071000645C1ABF194610467FEA655C1CBF0B4635
:10072000024650EA013406BF52EA033591EA030F4C
:1007300041F4002130BD00BF90F0000F04BF002144
:10074000704730B54FF4806404F132044FF0000577
:100750004FF0000150E700BF90F0000F04BF0021F0
:10076000704730B54FF4806404F1320410F0004556
:1007700048BF40424FF000013EE700BF42004FEA51
:10078000E2014FEA31014FEA02701FBF12F07F43CE
:1007900093F07F4F81F06051704732F07F4208BF85
:1007A000704793F07F4F04BF41F40021704730B58C
:1007B0004FF4607401F0004521F000411CE700BFD8
:1007C00050EA010208BF704730B54FF000050AE05B
:1007D00050EA010208BF704730B511F0004502D55C
:1007E000404261EB41014FF4806404F132045FEA5E
:1007F000915C3FF4D8AE4FF003025FEADC0C18BF07
:1008000003325FEADC0C18BF033202EBDC02C2F1F8
:10081000200300FA03FC20FA02F001FA03FE40EA8A
:100820000E0021FA02F11444BDE600BF70B54FF08E
:10083000FF0C4CF4E06C1CEA11541DBF1CEA13556C
:1008400094EA0C0F95EA0C0F00F0DEF82C4481EAD4
:10085000030621EA4C5123EA4C5350EA013518BFF4
:1008600052EA033541F4801143F4801338D0A0FBE1
:1008700002CE4FF00005E1FB02E506F00042E0FB8E
:1008800003E54FF00006E1FB03569CF0000F18BF94
:100890004EF0010EA4F1FF04B6F5007F64F540743C
:1008A00004D25FEA4E0E6D4146EB060642EAC621CF
:1008B00041EA55514FEAC52040EA5E504FEACE2E3C
:1008C000B4F1FD0C88BFBCF5E06F1ED8BEF1004F3F
:1008D00008BF5FEA500E50F1000041EB045170BDBB
:1008E00006F0004646EA010140EA020081EA0301FF
:1008F000B4EB5C04C2BFD4EB0C0541EA045170BDFB
:1009000041F480114FF0000E013C00F3AB8014F174
:10091000360FDEBF002001F0004170BDC4F10004BD
:10092000203C35DA0C341BDC04F11404C4F120053E
:1009300000FA05F320FA04F001FA05F240EA020099
:1009400001F0004221F0004110EBD37021FA04F6CF
:1009500042EB06015EEA430E08BF20EAD37070BD89
:10096000C4F10C04C4F1200500FA04F320FA05F0E8
:1009700001FA04F240EA020001F0004110EBD370EA
:1009800041F100015EEA430E08BF20EAD37070BD5A
:10099000C4F1200500FA05F24EEA020E20FA04F333
:1009A00001FA05F243EA020321FA04F001F00041E2
:1009B00021FA04F220EA020000EBD3705EEA430E53
:1009C00008BF20EAD37070BD94F0000F0FD101F082
:1009D0000046400041EB010111F4801F08BF013CBB
:1009E000F7D041EA060195F0000F18BF704703F0F9
:1009F0000046520043EB030313F4801F08BF013D80
:100A0000F7D043EA0603704794EA0C0F0CEA13553B
:100A100018BF95EA0C0F0CD050EA410618BF52EAF5
:100A20004306D1D181EA030101F000414FF00000FB
:100A300070BD50EA410606BF1046194652EA430609
:100A400019D094EA0C0F02D150EA013613D195EA7D
:100A50000C0F05D152EA03361CBF104619460AD1C5
:100A600081EA030101F0004141F0FE4141F47001CF
:100A70004FF0000070BD41F0FE4141F4780170BDBF
:100A800070B54FF0FF0C4CF4E06C1CEA11541DBF24
:100A90001CEA135594EA0C0F95EA0C0F00F0A7F826
:100AA000A4EB050481EA030E52EA03354FEA013153
:100AB00000F088804FEA03334FF0805545EA131366
:100AC00043EA12634FEA022245EA111545EA10652E
:100AD0004FEA00260EF000419D4208BF964244F1C5
:100AE000FD0404F5407402D25B084FEA3202B61AE4
:100AF00065EB03055B084FEA32024FF480104FF4B8
:100B0000002CB6EB020E75EB030E22BFB61A75462B
:100B100040EA0C005B084FEA3202B6EB020E75EBBE
:100B2000030E22BFB61A754640EA5C005B084FEA26
:100B30003202B6EB020E75EB030E22BFB61A7546F3
:100B400040EA9C005B084FEA3202B6EB020E75EBFE
:100B5000030E22BFB61A754640EADC0055EA060EBF
:100B600018D04FEA051545EA16754FEA06164FEA02
:100B7000C30343EA52734FEAC2025FEA1C1CC0D1AE
:100B800011F4801F0BD141EA00014FF000004FF03B
:100B9000004CB6E711F4801F04BF01430020B4F1FC
:100BA000FD0C88BFBCF5E06F3FF6AFAEB5EB030CB4
:100BB00004BFB6EB020C5FEA500C50F1000041EBB1
:100BC000045170BD0EF0004E4EEA113114EB5C047E
:100BD000C2BFD4EB0C0541EA045170BD41F4801151
:100BE0004FF0000E013C90E645EA060E8DE60CEA59
:100BF000135594EA0C0F08BF95EA0C0F3FF43BAF76
:100C000094EA0C0F0AD150EA01347FF434AF95EA2C
:100C10000C0F7FF425AF104619462CE795EA0C0F10
:100C200006D152EA03353FF4FDAE1046194622E7DD
:100C300050EA410618BF52EA43067FF4C5AE50EAB7
:100C400041047FF40DAF52EA43057FF4EBAE12E7A7
:100C50004FF0FF3C06E000BF4FF0010C02E000BF88
:100C60004FF0010C4DF804CD4FEA410C7FEA6C5C6B
:100C70004FEA430C18BF7FEA6C5C1BD001B050EA0E
:100C8000410C0CBF52EA430C91EA030F02BF90EAF9
:100C9000020F0020704710F1000F91EA030F58BFB8
:100CA000994208BF90422CBFD8176FEAE37040F01A
:100CB000010070474FEA410C7FEA6C5C02D150EAB8
:100CC000013C07D14FEA430C7FEA6C5CD6D152EA73
:100CD000033CD3D05DF8040B704700BF8446104638
:100CE00062468C461946634600E000BF01B5FFF737
:100CF000B7FF002848BF10F1000F01BD4DF808ED07
:100D0000FFF7F4FF0CBF012000205DF808FB00BFD7
:100D10004DF808EDFFF7EAFF34BF012000205DF831
:100D200008FB00BF4DF808EDFFF7E0FF94BF01207E
:100D300000205DF808FB00BF4DF808EDFFF7CEFF7F
:100D400094BF012000205DF808FB00BF4DF808EDBE
:100D5000FFF7C4FF34BF012000205DF808FB00BF8F
:100D60004FEA410C7FEA6C5C02D150EA013C0AD1A7
:100D70004FEA430C7FEA6C5C02D152EA033C02D199
:100D80004FF0000070474FF0010070474FEA4102FA
:100D900012F5001215D211D56FF47873B3EB6252CD
:100DA00012D94FEAC12343F0004343EA505311F0F4
:100DB000004F23FA02F018BF404270474FF0000086
:100DC000704750EA013005D111F0004008BF6FF0C4
:100DD000004070474FF00000704700BF53B94AB958
:100DE000002908BF00281CBF4FF0FF314FF0FF3033
:100DF00000F00CB8ADF1080C6DE904CE08F060F815
:100E0000DDF804E0DDE9022304B07047704700BF5D
:100E100010B5054C237833B9044B13B10448AFF334
:100E200000800123237010BDB809002000000000DD
:100E30003C91000808B5034B1BB103490348AFF3CD
:100E4000008008BD00000000BC0900203C910008A3
:100E5000034B1A6800235362536A8342FCD37047E2
:100E6000000A002000B587B000230193029303938A
:100E70000493059301910123029301A900F0CCFD95
:100E800007B05DF804FB000008B501210148FFF739
:100E9000E9FF08BD0008024000B587B000230193B8
:100EA0000293039304930593019101A900F0B4FD0B
:100EB00007B05DF804FB000008B501210148FFF709
:100EC000EBFF08BD0008024010B5FFF7DDFF0E4C38
:100ED00000220121204600F096FE4FF4F070FFF74B
:100EE000B7FFFFF7E9FF6420FFF7B2FF01212046BB
:100EF00000F082FE044600B101244FF4BE70FFF7FB
:100F0000A7FF204610BD00BF0008024008B5FFF74C
:100F1000DBFF00B908BD0120FCE708B5FFF7D4FFEF
:100F200000B908BD0120FCE738B5054600240CE0F7
:100F3000FFF7AAFF00220121104800F064FE3C20C8
:100F4000FFF786FFFFF7B8FF0134072C14DC45FAE2
:100F500004F313F0010FEBD0FFF796FF00220121FD
:100F6000064800F050FE0120FFF772FFFFF7A4FFD4
:100F70003C20FFF76DFFE7E738BD00BF00080240E7
:100F800008B5CC20FFF7D0FF4420FFF7CDFF08BD08
:100F900070B5FFF791FF0024264603E03220FFF7EB
:100FA00057FF0134072C1ADCFFF76EFF0D4D0022AE
:100FB0000121284600F027FE0220FFF749FFFFF736
:100FC0007BFF0A20FFF744FF0121284600F014FEB2
:100FD0000028E3D00123A3401E43F6B2DEE73046EB
:100FE00070BD00BF0008024010B5CC20FFF79CFF89
:100FF000BE20FFF799FFFFF7CBFF0446FFF7C8FFBE
:1010000044EA0024014B1C8010BD00BFD809002019
:1010100008B5284B1B68032B45D8DFE803F0020F07
:101020002236FFF773FF00283FD1234B1B680022B5
:101030005A62204A13680133136006E01E4B1B6896
:101040005B6AB3F57A7F01D2002008BDFFF798FFF5
:10105000194B1B6800205862164A1368013313604D
:10106000F3E7154B1B685B6AB3F5FA5F01D200200A
:10107000EBE7FFF752FFD0B90F4B1B6800225A6213
:101080000C4A136801331360DFE70B4B1B685B6A84
:10109000B3F57A7F01D20020D7E7FFF7A5FF002044
:1010A000044B1860D1E70020CFE70120CDE70120F5
:1010B000CBE700BFD4090020480A002008B5FFF79D
:1010C000A7FF30B9044B1B8800EE103AB8EE400A77
:1010D00008BD9FED020AFBE7D809002000FF7F470B
:1010E000F8B505460F46164600240DE02B686868E3
:1010F00047FA04F202F0010230F8141053F8240009
:1011000000F081FD0134E4B2B442EFD30122A98A98
:10111000286900F078FD012000F0FEFB0022A98A7A
:10112000286900F070FDF8BD38B504460D46002270
:101130008189806800F067FDA37D63B9042225FAE8
:1011400002F12046FFF7CCFF042205F00F012046F4
:10115000FFF7C6FF38BD082229462046FFF7C0FF2B
:10116000F8E738B504460D4601228189806800F011
:101170004AFDA37D63B9042225FA02F12046FFF758
:10118000AFFF042205F00F012046FFF7A9FF38BD8D
:10119000082229462046FFF7A3FFF8E710B50446CA
:1011A000837DBBB93321FFF7BFFF32212046FFF714
:1011B000BBFF28212046FFF7B7FF01212046FFF79C
:1011C000B3FF0C212046FFF7AFFF06212046FFF7B3
:1011D000ABFF10BD3821FFF7A7FFEEE710B586B0D3
:1011E00004469DF82C008DF81600BDF82800ADF8D7
:1011F000140009980490BDF82000ADF80C0002938B
:10120000019200916846FFF7C9FFA646EC46BCE88C
:101210000F00AEE80F009CE803008EE803002046B4
:1012200006B010BD70B506460D46002405E0295DE8
:101230003046FFF796FF0134E4B22846FEF7E0FFA0
:101240008442F4D370BD000010B584B00446FDEEB6
:10125000C07AB8EEE77A30EE470A9FED0A7A20EEC0
:10126000070ABDEEC07A17EE103A17EE902A06492B
:1012700001A801F0B5FE01A92046FFF7D3FF04B095
:1012800010BD00BF00007A447091000808B5044BFF
:10129000595C1144C9B281F08001FFF745FF08BDD8
:1012A0007891000808B50121FFF73EFF08BD000056
:1012B0002DE9F0418AB0002405940694079408941F
:1012C00009940194314B1A6B42F004021A631A6BB1
:1012D00002F004020192019A02941A6B42F0800219
:1012E0001A631A6B02F080020292029A03941A6B3C
:1012F00042F001021A631A6B02F001020392039A90
:1013000004941A6B42F002021A631B6B03F002038F
:101310000493049B1E4E22460121304600F073FCCC
:10132000DFF8788022462021404600F06CFC194FFF
:101330002246F721384600F066FC4FF4005305932F
:10134000154B0693079405A9304600F065FB01256F
:10135000059506950794089405A9304600F05CFBB6
:101360002023059306950794089405A9404600F0AC
:1013700053FBF723059306950794089405A938466F
:1013800000F04AFB0AB0BDE8F08100BF003802401F
:10139000000802400004024000002110000002404A
:1013A00072B6FEE710B5ACB0342200211FA801F0E0
:1013B000C5FD00241A941B941C941D941E945C2259
:1013C000214603A801F0BAFD0194284B1A6C42F0A3
:1013D00080521A641B6C03F080530193019B0294AA
:1013E000234A136823F4404343F480431360136893
:1013F00003F440430293029B05231F934FF4803371
:10140000209301232193022325934FF480022692F7
:10141000042227926422289229932A932B931FA8AF
:1014200000F0D0FFD8B90F231A9302231B93002397
:101430001C934FF4A0531D934FF480531E9303212C
:101440001AA800F0E7FB60B9202303934FF48073E0
:10145000139303A800F0B4FC28B92CB010BDFFF71B
:101460009FFFFFF79DFFFFF79BFF00BF0038024083
:101470000070004010B52DED028B90B000F020FA06
:10148000FFF790FFFFF714FF00F0A2F900F05AF801
:1014900000F01AF900F040F9234C0DF1300E94E8F9
:1014A0000F008EE80F000AAA04F1100C9CE803005C
:1014B00082E803001D4B0021039104210291019356
:1014C00001210091714604A8FFF788FE184904A87D
:1014D000FFF7A8FE174801F031FA174801F02EFA7D
:1014E0000BE004A8FFF7DEFE0022114604A8FFF778
:1014F000CDFE124904A8FFF795FEFFF7DFFDB0EE21
:10150000408ADFED0F7AB4EE670AF1EE10FAE8D008
:101510000022012104A8FFF7B9FEB0EE480A04A892
:10152000FFF792FEE9E700BF58910008000402406F
:101530007C910008000A0020480A00208C910008D5
:1015400000FF7F4708B50948094B0360002343604B
:101550007F228260FF22C26003614361836101F0E8
:101560008AF900B908BDFFF71BFFFBE7DC09002083
:10157000002800400268044B9A4200D07047034B99
:101580000122C3F83C2EF9E7002800400000474242
:1015900000B583B0002100910C4B5A6C42F480429C
:1015A0005A645A6C02F480420092009A01911A6CBB
:1015B00042F080521A641B6C03F080530193019B2C
:1015C000062000F0BDF903B05DF804FB00380240CE
:1015D000FEE7FEE7FEE7FEE7FEE77047704770476D
:1015E00008B500F087F908BD08B5024801F0E9F92F
:1015F00008BD00BF480A00200120704708B501F06F
:101600005DFC162303604FF0FF3008BD08B54FF0B6
:10161000FF31FFF7F3FFFEE770B50C4616460025D5
:1016200006E0AFF30080214601F8010B01350C46BE
:10163000B542F6DB304670BD70B50C461646002547
:1016400004E014F8010BAFF300800135B542F8DB7C
:10165000304670BD4FF0FF3070474FF400534B6081
:1016600000207047012070470020704710B50346E6
:101670000C4A0D490D48006840B10C48006803440D
:10168000521A934206D8094A136010BD0748084C05
:101690000460F2E701F012FC0C2303604FF0FF300E
:1016A000F3E700BF0000022000040000FC09002056
:1016B000200B0020034AD2F8883043F47003C2F8AC
:1016C0008830704700ED00E000B583B00023009340
:1016D00001930F480F4A02603122426083604FF647
:1016E000FE72C260836101F08DFA50B9002300934D
:1016F00001936946064801F0B1FA28B903B05DF8D4
:1017000004FBFFF74DFEF1E7FFF74AFEF6E700BFE7
:10171000000A00200010004000B583B000230093B1
:1017200001930F480F4A02603122426083604FF6F6
:10173000FE72C260836101F065FA50B90023009324
:1017400001936946064801F089FA28B903B05DF8AB
:1017500004FBFFF725FEF1E7FFF722FEF6E700BFE7
:10176000480A00200014004000B583B00368154A01
:10177000934205D0144A93420FD003B05DF804FBA6
:1017800000230093114B1A6C42F010021A641B6C78
:1017900003F010030093009BEFE7002201920B4B34
:1017A000196C41F0200119641B6C03F020030193B4
:1017B000019B0121372000F0D5F8372000F00AF90D
:1017C000DBE700BF0010004000140040003802407A
:1017D00008B50A480A4B03604FF4E1334360002325
:1017E0008360C36003610C2242618361C36101F0C5
:1017F00005FB00B908BDFFF7D3FDFBE7900A002009
:101800000044004000B589B000230393049305937E
:10181000069307930268154B9A4202D009B05DF80F
:1018200004FB0021019103F5FA331A6C42F40032F3
:101830001A641A6C02F400320192019A02911A6B36
:1018400042F001021A631B6B03F001030293029B37
:101850000C23039302230493032306930723079384
:1018600003A9034800F0D8F8D8E700BF00440040BF
:101870000000024010B504460E4B1A784FF47A73FC
:10188000B3FBF2F30C4A1068B0FBF3F000F0B0F8D1
:1018900068B90F2C01D901200AE0002221464FF03F
:1018A000FF3000F05FF8054B1C60002000E00120D5
:1018B00010BD00BF04000020000000200800002030
:1018C00008B50B4B1A6842F400721A601A6842F4A9
:1018D00080621A601A6842F480721A60032000F075
:1018E0002FF80020FFF7C6FFFFF752FE002008BDCB
:1018F000003C0240034A1168034B1B780B44136001
:10190000704700BFD40A002004000020014B186873
:10191000704700BFD40A002038B50446FFF7F6FF31
:101920000546B4F1FF3F02D0044B1B781C44FFF77F
:10193000EDFF401BA042FAD338BD00BF04000020D9
:10194000074AD36823F4E0631B041B0C000200F475
:10195000E060034343F0BF6343F40033D360704758
:1019600000ED00E000B5194BDB68C3F30223C3F1BF
:10197000070CBCF1040F28BF4FF0040C03F1040E58
:10198000BEF1060F18D9033B4FF0FF3E0EFA0CFCD8
:1019900021EA0C0199400EFA03FE22EA0E020A43E4
:1019A00000280BDB1201D2B200F1604000F561406B
:1019B00080F800235DF804FB0023E5E700F00F004A
:1019C0001201D2B2024B1A54F4E700BF00ED00E05E
:1019D00014ED00E0002807DB00F01F02400901239E
:1019E0009340024A42F82030704700BF00E100E017
:1019F0000138B0F1807F0BD24FF0E0235861054AE7
:101A0000F02182F823100020986107221A617047A4
:101A10000120704700ED00E000230F2B00F2E3806F
:101A200070B582B065E085684FEA430E032404FA7E
:101A30000EF425EA0405CC6804FA0EF42C43846005
:101A4000446824EA02044A68C2F300129A4022431E
:101A500042605CE0DC08083450F8242003F00705FD
:101A6000AD004FF00F0E0EFA05FE22EA0E0E0A69C7
:101A7000AA4042EA0E0240F824205CE0062200E080
:101A8000002202FA0EF22A430234574D45F8242070
:101A9000564A14686FEA0C0224EA0C054E6816F4E4
:101AA000803F01D04CEA0405504C2560646802EA8E
:101AB00004054E6816F4003F01D04CEA04054B4C77
:101AC0006560A46802EA04054E6816F4801F01D020
:101AD0004CEA0405454CA560E46822404D6815F4C5
:101AE000001F01D04CEA0402404CE26001330F2B8E
:101AF00077D801229A400C6804EA020C32EA040406
:101B0000F4D14C6804F00304013C012C8BD94A68E1
:101B100002F00302032A09D0C4685D000322AA4030
:101B200024EA02048A68AA402243C2604A6802F09A
:101B30000302022A8ED004684FEA430E032202FAFF
:101B40000EF224EA02044A6802F0030202FA0EF2DC
:101B5000224302604A6812F0805FC7D000220192DF
:101B6000234A546C44F480445464526C02F480421E
:101B70000192019A9C08A51C1B4A52F8255003F0BB
:101B8000030E4FEA8E0E0F2202FA0EF225EA02052C
:101B9000184A90423FF474AF02F58062904216D02A
:101BA00002F58062904214D002F58062904212D019
:101BB00002F58062904210D002F5806290420ED011
:101BC00002F5806290423FF459AF072259E70122A3
:101BD00057E7022255E7032253E7042251E7052283
:101BE0004FE702B070BD704700380140003C014033
:101BF00000380240000002400369194201D0012070
:101C00007047002070470AB1816170470904816103
:101C100070470000002800F09B8070B50D46044618
:101C20004F4B1B6803F00F038B4208D2CBB24C4AD8
:101C30001370136803F00F038B4240F08B8023680E
:101C400013F0020F17D013F0040F04D0454A936825
:101C500043F4E0539360236813F0080F04D0414A23
:101C6000936843F4604393603E4A936823F0F00323
:101C7000A1680B439360236813F0010F32D06368AF
:101C8000012B21D09A1E012A25D9364A126812F05A
:101C9000020F61D033498A6822F0030213438B603C
:101CA000FFF734FE06462F4B9B6803F00C03626877
:101CB000B3EB820F16D0FFF729FE801B41F2883369
:101CC0009842F0D9032042E0264A126812F4003FFD
:101CD000E0D101203BE0234A126812F0007FD9D105
:101CE000012034E01E4B1B6803F00F03AB4207D901
:101CF000EAB21B4B1A701B6803F00F03AB422DD1E5
:101D0000236813F0040F06D0164A936823F4E053B7
:101D1000E1680B439360236813F0080F07D0114A62
:101D2000936823F46043216943EAC103936000F0A0
:101D300081FA0C4B9B68C3F303130B4AD35CD84066
:101D40000A4B18600A4B1868FFF794FD002070BD1D
:101D5000012070470120FAE70120F8E70120F6E7AB
:101D6000003C02400038024098910008000000202A
:101D700008000020014B1868704700BF00000020D9
:101D800008B5FFF7F7FF044B9B68C3F38223034AB0
:101D9000D35CD84008BD00BF00380240A8910008BD
:101DA00008B5FFF7E7FF044B9B68C3F34233034AD0
:101DB000D35CD84008BD00BF00380240A89100089D
:101DC000F0B583B00446066816F001060DD0964AB9
:101DD000D2F88C3023F0C063816B0B43C2F88C3097
:101DE000836B002B00F09B800026236813F0020F0A
:101DF0000BD08D4AD2F88C3023F0C053E16B0B43EB
:101E0000C2F88C30E36B03B90126256815F0040590
:101E10000FD0854AD2F88C3023F44013216B0B434A
:101E2000C2F88C30236BB3F5801F7AD0002B7AD0A8
:101E30000025236813F0080F0ED07B4AD2F88C30AF
:101E400023F44003616B0B43C2F88C30636BB3F532
:101E5000800F6AD003B90125236813F0200F66D1E3
:101E6000236813F0100F04D094F858206F4BC3F878
:101E7000E021236813F0800F08D06B4AD2F8943029
:101E800023F44003E16C0B43C2F89430236813F051
:101E9000400F08D0644AD2F8943023F08063A16CDC
:101EA0000B43C2F89430236813F4807F0DD05E4A50
:101EB000D2F8943023F00063616D0B43C2F8943084
:101EC000636DB3F1006F00F09B80236813F4007F13
:101ED00008D0554AD2F8943023F08053616C0B43FC
:101EE000C2F89430236813F4806F0CD04E4AD2F8B5
:101EF000943023F00053216D0B43C2F89430236DCE
:101F0000B3F1005F7ED0002E7CD12368B3F5006F63
:101F100078D0012D00F02581002003B0F0BD01260E
:101F200063E7012682E7012583E7012692E7002384
:101F300001933D4B1A6C42F080521A641B6C03F003
:101F400080530193019B3A4A136843F480731360F2
:101F5000FFF7DCFC0746364B1B6813F4807F06D185
:101F6000FFF7D4FCC01B0228F5D90320D5E72E4B80
:101F70001B6F13F4407314D0226C02F440729A4227
:101F80000FD0294B1A6F22F440722A490120C1F860
:101F9000400E0020C1F8400E1A671B6F13F0010FAE
:101FA00012D1236C03F44072B2F5407F1DD01E4A5B
:101FB000936823F4F81393601B490B6F226CC2F3F0
:101FC0000B0213430B674BE7FFF7A0FC0746164BCA
:101FD0001B6F13F0020FE4D1FFF798FCC01B41F216
:101FE00088339842F3D9032097E70F498A6822F48F
:101FF000F81223F0704323F4407313438B60DBE744
:10200000012562E70B4B00229A66FFF77FFC06462C
:10201000054B1B6813F0006F0ED0FFF777FC801B99
:102020000228F5D9032078E7003802400010474223
:102030000070004000004742236813F0010F01D0F8
:10204000A26B22B113F0020F15D0E36B9BB9774A54
:10205000D2F88400D2F884106368A66843EA861335
:1020600000F44030034301F070610B43616943EABF
:102070000173C2F88430236813F0040F03D0226B7D
:10208000B2F5801F06D013F0080F20D0636BB3F5B4
:10209000800F1CD1654AD2F88400D2F8841063689E
:1020A000A66843EA861300F440300343206943EAFC
:1020B000006301F0E0410B43C2F88430D2F88C3069
:1020C00023F01F03A16A01390B43C2F88C30236847
:1020D00013F4806F03D0236DB3F1005F28D0236821
:1020E00013F4006F11D06368A26843EA8213E268B8
:1020F0005208013A43EA0243226943EA02636269F1
:1021000043EA0273494AC2F88430494B01229A6675
:10211000FFF7FCFB0646454B1B6813F0006F7FF48E
:10212000F8AEFFF7F3FB801B0228F4D90320F4E696
:102130003E48D0F88420C2F301420132D0F88460D6
:102140006368A16843EA8113E1684908013943EAF9
:10215000014343EA426306F0E0421343C0F884308F
:10216000BDE7334B00221A67FFF7D0FB05462F4B24
:102170001B6813F0005F06D0FFF7C8FB401B022866
:10218000F5D90320C9E6236813F0040F01D0226BB0
:1021900022B113F0080F1AD0636BC3B9234AD2F8E7
:1021A0008810A369E06943EA801301F440310B43CE
:1021B000616A43EA0163C2F88830D2F88C3023F4B4
:1021C000F853E16A013943EA0123C2F88C302368ED
:1021D00013F4807F03D0636DB3F1006F11D0144B03
:1021E00001221A67FFF792FB0446104B1B6813F09D
:1021F000005F18D1FFF78AFB001B0228F5D90320E6
:102200008BE60A48D0F88810A369E26943EA821392
:10221000226A5208013A43EA024301F07062134312
:10222000C0F88830DBE7002077E600BF00380240C6
:102230000000474208B5604B9B6803F00C03082B75
:1022400007D00C2B5FD0042B01D05C4808BD5C4844
:10225000FCE7594B5A6802F03F025B6813F4800FA9
:102260002CD0554B5868C0F388104FEA401CBCEB8B
:10227000000C6EEB0E0E4FEA8E1343EA9C634FEA9E
:102280008C11B1EB0C0163EB0E03DB0043EA5173DD
:10229000C90011EB000C43F10003590200234FEA7F
:1022A0004C2041EADC51FEF799FD434B5B68C3F3D8
:1022B000014301335B00B0FBF3F0C7E73E4B5868C6
:1022C000C0F388104FEA401CBCEB000C6EEB0E0E06
:1022D0004FEA8E1343EA9C634FEA8C11B1EB0C0179
:1022E00063EB0E03DB0043EA5173C90011EB000CF2
:1022F00043F10003990200234FEA8C2041EA9C51EC
:10230000FEF76CFDD1E72C4B5A6802F03F025B6888
:1023100013F4800F2AD0284B5868C0F388104FEA76
:10232000401CBCEB000C6EEB0E0E4FEA8E1343EA22
:102330009C634FEA8C11B1EB0C0163EB0E03DB00E5
:1023400043EA5173C90011EB000C43F10003590239
:1023500000234FEA4C2041EADC51FEF73FFD164BCB
:102360005B68C3F30273B0FBF3F06FE7124B58687E
:10237000C0F388104FEA401CBCEB000C6EEB0E0E55
:102380004FEA8E1343EA9C634FEA8C11B1EB0C01C8
:1023900063EB0E03DB0043EA5173C90011EB000C41
:1023A00043F10003990200234FEA8C2041EA9C513B
:1023B000FEF714FDD3E700BF003802400024F4000C
:1023C00000127A00002800F0018270B582B0044645
:1023D000036813F0010F41D0994B9B6803F00C0385
:1023E000042B32D0964B9B6803F00C03082B27D0AC
:1023F000934B9B6803F00C030C2B59D06368B3F527
:10240000803F5BD0B3F5A02F5ED08D4B1A6822F4CD
:1024100080321A601A6822F480221A606368002BE6
:102420005CD0FFF773FA0546854B1B6813F4003F39
:1024300014D1FFF76BFA401B6428F5D90320CCE1D7
:102440007F4B5B6813F4800FD2D07D4B1B6813F475
:10245000003F03D06368002B00F0BA81236813F0BB
:10246000020F60D0764B9B6813F00C0F4AD0744B70
:102470009B6803F00C03082B3FD0714B9B6803F063
:102480000C030C2B69D0E368002B75D06D4B012237
:102490001A60FFF73BFA0546694B1B6813F0020F01
:1024A00061D1FFF733FA401B0228F5D9032094E1EC
:1024B000634B5B6813F4800FA0D0C6E7604A1368D3
:1024C00043F480331360A9E75D4B1A6842F480221D
:1024D0001A601A6842F480321A609FE7FFF716FA12
:1024E0000546574B1B6813F4003FB7D0FFF70EFAB1
:1024F000401B6428F5D903206FE1514B5B6813F44E
:10250000800FBAD14E4B1B6813F0020F03D0E36863
:10251000012B40F05F814A4A136823F0F8032169D8
:1025200043EAC1031360236813F0080F49D06369BD
:10253000002B33D0434B0122C3F8802EFFF7E6F97E
:1025400005463F4B5B6F13F0020F3AD1FFF7DEF900
:10255000401B0228F5D903203FE1394B5B6813F497
:10256000800F90D1CEE7364A136823F0F803216933
:1025700043EAC1031360D6E7324B00221A60FFF72B
:10258000C5F905462E4B1B6813F0020FCBD0FFF7A1
:10259000BDF9401B0228F5D903201EE1294B00227A
:1025A000C3F8802EFFF7B2F90546254B5B6F13F099
:1025B000020F06D0FFF7AAF9401B0228F5D9032025
:1025C0000BE1236813F0040F76D01D4B1B6C13F046
:1025D000805F33D100230193194B1A6C42F0805273
:1025E0001A641B6C03F080530193019B0125164B69
:1025F0001B6813F4807F29D0A368012B3AD0052BE8
:102600003ED00F4B1A6F22F001021A671A6F22F0A8
:1026100004021A67A368002B3CD0FFF777F906463F
:10262000074B1B6F13F0020F45D1FFF76FF9801BAB
:1026300041F288339842F3D90320CEE00025D6E753
:102640000038024000004742007000406B4A1368A7
:1026500043F480731360FFF759F90646674B1B6814
:1026600013F4807FC8D1FFF751F9801B0228F5D9F8
:102670000320B2E0624A136F43F001031367C9E716
:102680005F4B1A6F42F004021A671A6F42F00102A0
:102690001A67BFE7FFF73AF90646594B1B6F13F06D
:1026A000020F08D0FFF732F9801B41F288339842BD
:1026B000F3D9032091E0EDB9A369002B00F08C80E1
:1026C0004F4A926802F00C02082A54D0022B17D00D
:1026D0004C4B00221A66FFF719F90446484B1B6859
:1026E00013F0007F45D0FFF711F9001B0228F5D940
:1026F000032072E0424A136C23F080531364DBE73B
:10270000404B00221A66FFF701F905463C4B1B6857
:1027100013F0007F06D0FFF7F9F8401B0228F5D927
:1027200003205AE0E369226A1343626A43EA821390
:10273000A26A5208013A43EA0243E26A43EA0263A8
:10274000226B43EA02732E4A53602E4B01221A6613
:10275000FFF7DCF804462A4B1B6813F0007F06D114
:10276000FFF7D4F8001B0228F5D9032035E000203C
:1027700033E0002031E0012B31D0214B5B6803F4C2
:102780008001E26991422CD103F03F02216A8A4222
:1027900029D1616A47F6C0721A40B2EB811F24D179
:1027A00003F44031A26A5208013AB1EB024F1ED144
:1027B00003F07062E16AB2EB016F1AD103F0E043FB
:1027C000226BB3EB027F16D1002006E00120704798
:1027D000012002E0012000E0002002B070BD0120D5
:1027E000FBE70120F9E70120F7E70120F5E70120E9
:1027F000F3E70120F1E70120EFE700BF00700040A0
:10280000003802400000474238B504460268D368E9
:1028100023F0A003D360FFF779F805462368DB684F
:1028200013F0200F07D1FFF771F8401BB0F57A7F46
:10283000F4D9032000E0002038BD38B50368DA6819
:1028400012F0400F01D0002038BD04464FF0FF3297
:10285000DA60FFF75BF805462368DB6813F0400F8A
:1028600007D1FFF753F8431BB3F57A7FF4D9032060
:10287000EAE70020E8E738B500285CD00446437F4B
:10288000002B41D0022363772368CA225A6223684F
:1028900053225A622046FFF7D0FF0546002837D161
:1028A0002268936823F4E00323F0400393602168D7
:1028B0008A686368206903436069034313438B603C
:1028C0002368E2681A6122681369A16843EA014338
:1028D00013612268D36823F08003D36023689B6868
:1028E00013F0200F1BD02268136C23F48023136491
:1028F0002268136CA1690B4313642368FF225A6298
:1029000001236377284638BD0377FEF733FEB9E726
:102910002368FF225A62042363770125F2E72046E9
:10292000FFF772FF0028DED02368FF225A620423DB
:1029300063770125E6E70125E4E7000090F83D30E4
:10294000DBB2012B32D1022380F83D300368194AF3
:10295000934220D0B3F1804F1DD0A2F57C42934228
:1029600019D002F58062934215D002F5806293423D
:1029700011D002F5784293420DD002F57052934285
:1029800009D0A2F59432934205D01A6842F00102B0
:102990001A60002070479A6802F00702062A07D0E2
:1029A0001A6842F001021A60002070470120704747
:1029B0000020704700000140704770477047704723
:1029C000704710B5044603681A6912F0020F11D05F
:1029D000DA6812F0020F0DD06FF002021A610123C3
:1029E000037703689B6913F0030F70D0FFF7E6FFCE
:1029F0000023237723681A6912F0040F12D0DA68D3
:102A000012F0040F0ED06FF004021A610223237734
:102A100023689B6913F4407F5FD02046FFF7CEFF09
:102A20000023237723681A6912F0080F12D0DA689E
:102A300012F0080F0ED06FF008021A6104232377FA
:102A40002368DB6913F0030F4ED02046FFF7B6FF73
:102A50000023237723681A6912F0100F12D0DA6866
:102A600012F0100F0ED06FF010021A6108232377B6
:102A70002368DB6913F4407F3DD02046FFF79EFFBB
:102A80000023237723681A6912F0010F03D0DA6854
:102A900012F0010F36D123681A6912F0800F03D0AB
:102AA000DA6812F0800F34D123681A6912F0400FEF
:102AB00003D0DA6812F0400F32D123681A6912F09D
:102AC000200F03D0DA6812F0200F30D110BDFFF7CD
:102AD00074FF2046FFF773FF8AE72046FFF76DFF7C
:102AE0002046FFF76CFF9BE72046FFF766FF204676
:102AF000FFF765FFACE72046FFF75FFF2046FFF7D3
:102B00005EFFBDE76FF001021A612046FFF754FF38
:102B1000C1E76FF080021A61204600F0E6F8C3E7D3
:102B20006FF040021A612046FFF74AFFC5E76FF0D9
:102B300020021A61204600F0D7F8C7E70368304A40
:102B4000904212D0B0F1804F0FD0A2F57C4290425B
:102B50000BD002F58062904207D002F5806290426D
:102B600003D002F57842904203D123F070034A6803
:102B70001343234A90422AD0B0F1804F27D0A2F5C8
:102B80007C42904223D002F5806290421FD002F531
:102B9000806290421BD002F57842904217D002F535
:102BA0007052904213D002F5806290420FD002F52D
:102BB000806290420BD0A2F59832904207D002F585
:102BC0008062904203D002F58062904203D123F4E8
:102BD0004073CA68134323F080034A6913430360B8
:102BE0008B68C3620B688362054B984203D003F580
:102BF0008063984201D10B690363012343617047ED
:102C00000000014040B310B5044690F83D30F3B1E8
:102C1000022384F83D30214651F8040BFFF78EFF64
:102C2000012384F8463084F83E3084F83F3084F83D
:102C3000403084F8413084F8423084F8433084F8DE
:102C4000443084F8453084F83D30002010BD80F8D1
:102C50003C30FEF789FDDBE70120704790F83C200F
:102C6000012A3DD010B40346012280F83C20022204
:102C700080F83D2002685068946820F0700C086865
:102C800040EA0C0050601A68164882421AD0B2F12D
:102C9000804F17D0A0F57C40824213D000F58060B1
:102CA00082420FD000F5806082420BD000F5784060
:102CB000824207D000F57050824203D0A0F59430D4
:102CC000824204D124F080044968214391600122AA
:102CD00083F83D20002083F83C005DF8044B7047EA
:102CE00002207047000001407047704710B504464D
:102CF0000268136923F44053C1680B43136183686E
:102D000002691A4343691A43C3691A430168CB68CD
:102D100023F4164323F00C031343CB60026853697A
:102D200023F4407381690B4353610368314A934232
:102D300006D002F58062934202D0FFF721F801E04D
:102D4000FFF72EF8E369B3F5004F29D000210318EF
:102D500049411B1841F10001C90041EA5371DB00F0
:102D6000181863684FEA83024FEA937341F1000138
:102D7000FEF734F8204AA2FB00314909642303FB23
:102D800011031B013233A2FB03235B0903F0F002A2
:102D900002EB011203F00F03216813448B6010BD96
:102DA0000023021843EB0301121841F10001C9008E
:102DB00041EA5271D200101841F100016268921884
:102DC0005B41FEF70BF80C4AA2FB00314909642372
:102DD00003FB1103DB003233A2FB03235B095A0020
:102DE00002F4F87202EB011203F0070321681344A6
:102DF0008B60D4E7001001401F85EB5158B310B52C
:102E0000044690F83D300BB3242384F83D3022680B
:102E1000D36823F40053D3602046FFF767FF22688E
:102E2000136923F4904313612268536923F02A0342
:102E300053612268D36843F40053D36000202064B8
:102E4000202384F83D3084F83E3010BD80F83C30BB
:102E5000FEF7D8FCD8E7012070470000DFF834D037
:102E60000D480E490E4A002302E0D458C4500433E2
:102E7000C4188C42F9D30B4A0B4C002301E01360B9
:102E80000432A242FBD3FEF715FC00F033F8FEF744
:102E9000F1FA70470000022000000020B80900206D
:102EA00044950008B8090020200B0020FEE7000030
:102EB000002301461A46184601F0DEBD014B186892
:102EC000704700BF0C00002038B5084B084D5B1B55
:102ED0009C1007D0043B1D44013C55F80439984729
:102EE000002CF9D1BDE8384006F02EB94495000811
:102EF0004095000870B50D4E0D4D761BB61006D0EE
:102F0000002455F8043B01349847A642F9D1094EF4
:102F1000094D761B06F012F9B61006D0002455F8BC
:102F2000043B01349847A642F9D170BD389500089A
:102F3000389500084095000838950008830730B59B
:102F400048D0541E002A3FD0CAB2034601E0013CDB
:102F50003AD303F8012B9D07F9D1032C2DD9CDB21B
:102F600045EA05250F2C45EA054536D9A4F110029E
:102F700022F00F0C03F1200EE6444FEA121C03F17D
:102F8000100242E9045542E9025510327245F8D167
:102F90000CF1010214F00C0F03EB021204F00F0C01
:102FA00013D0ACF1040323F003030433134442F8B9
:102FB000045B9342FBD10CF003042CB1CAB21C4455
:102FC00003F8012B9C42FBD130BD64461346002C14
:102FD000F4D1F9E703461446BFE71A46A446E0E7F2
:102FE0000EB410B59DB06FF000411FABCDE90601E6
:102FF0000491094953F8042B0290084C0868019386
:1030000002A9059400F00CF8029B00221A701DB072
:10301000BDE8104003B070470C0000200802FFFF1D
:103020002DE9F04F2DED0A8BCFB00C460AEE101AA9
:10303000914608930AEE900A02F0BCFE03681293D0
:103040001846FDF7DDF8A3891190180603D523690A
:10305000002B00F09B874D469FEDA17B2B78002431
:1030600025AACDE92344CDE91344CDE916448DEDDD
:103070000E7B1AEE90BA0D94229290461594049409
:10308000002B00F0DA81A94604E019F8013F002B7B
:1030900000F00581252BF8D1B9EB050640F003813E
:1030A00099F80030002B00F0C88100234FF0FF3268
:1030B00099F801708DF86B30059309F101090392BD
:1030C0009A462B24202109F10109A7F120035A2B4C
:1030D00000F22A81DFE813F04303280128013E03B0
:1030E0002801280128011E032801280113030E03CB
:1030F00028010903EF022801EA025B005B005B0084
:103100005B005B005B005B005B005B00280128014B
:1031100028012801280128012801C0012801600296
:103120006F00C001C001C001280128012801280149
:10313000A10228012801B0002801280128016A0203
:1031400028018F02280128014507280128012801AC
:1031500028012801280128012801C0012801600256
:103160007100C001C001C001DD0271006A002801C8
:10317000D0022801B802B200A6026A0028016A0241
:103180006C00200728012801240728016C00A7F102
:103190003003002219F8017B02EB820203EB4202AA
:1031A000A7F13003092BF5D905928EE74AF0200AE2
:1031B00099F8007087E74AF0100A1AF0200F00F023
:1031C000D981089B073323F007031A465B6852F83E
:1031D000084B08921E46002BC0F28C85039B0133DE
:1031E00001F058802AF0800354EA0602029300F0AE
:1031F00019850A2C76F1000380F0B2873034012360
:10320000DDF808A08DF8374106930DF237150399C4
:1032100006989DF86B2081424FF00003B8BF01462D
:10322000079302910B9310930C93002A00F08D806A
:10323000029B0133029388E04AF0100A1AF020063C
:1032400000F08881089B073323F007035E6853F87A
:10325000084B08932AF480630293002300228DF820
:103260006B20039A1146013100F09082029921F0FF
:10327000800A54EA060140F08782002A41F0468025
:10328000002B40F0D484029B13F00103069300F05E
:103290005B8530238DF837310DF23715B7E7B9EB81
:1032A000050600F0CA80249B33442493239B0133FA
:1032B000072BC8E90056239305DC08F10808049B96
:1032C00033440493ECE61AEE101A22AA584603F08F
:1032D00093FCC8B90DF19408F1E700BFAFF300808B
:1032E00000000000000000001AEE101A22AA584642
:1032F00003F082FC002800F09180079B23B107991E
:103300001AEE900A02F05AFC1AEE103A9B8913F05A
:10331000400F049B18BF4FF0FF33049304984FB045
:10332000BDEC0A8BBDE8F08F002F00F086800022F4
:103330008DF8D4708DF86B200123CDE9063202930D
:1033400003920B9210920C9235AD1AF0020309937E
:1033500002D0029B023302931AF08403249C0A9346
:1033600005D1059B02995E1A002E00F3BA808AB13E
:10337000239A0DF16B0101320134C8F80010072ABD
:103380004FF0010124942392C8F8041000F35F83E6
:1033900008F10808099B83B1239B1BAA013302345F
:1033A000C8F80020072B4FF0020224942393C8F89A
:1033B000042000F3598308F108080A9B802B00F0D1
:1033C0006F82039B069A9E1A002E00F3B0821AF4B5
:1033D000807F40F00B82069BC8F804301C44239B7E
:1033E000C8F800500133072B2494239300F3228361
:1033F00008F108081AF0040F05D0059B029A9D1ADF
:10340000002D00F33E83DDE9043202998A42ACBF0D
:103410009B185B180493002C7FF466AF0023239362
:10342000079B1BB10799584602F0C8FB0DF19408A1
:103430004D462B78002B7FF426AE249B002B3FF4C7
:1034400063AF1AEE104A1AEE101A1AEE900A22AA68
:1034500003F0D2FBA3895AE7089B073323F0070345
:10346000B3EC027B52EC171B089322F000430BEEE7
:10347000903AB0EE47BAB0EE4B9AF0EE6B9ABD4B75
:1034800051EC190B4FF0FF328DED0E7BFDF768FC10
:10349000002840F07684B74B51EC190B4FF0FF3207
:1034A000FDF740FC002840F06C84DDE90E010022AD
:1034B0000023FDF72DFC002840F0D9879DF86B20F4
:1034C000AD4DAE4B2AF0800A0321472FC8BF1D46E1
:1034D000002307930291069103930B9310930C938F
:1034E000A3E6102E239A24DD214610231AEE104A5B
:1034F00004E0103E102E08F1080819DD0132A04842
:103500001031072AC8E90003CDE92321F1DD22AA01
:10351000214658460DF1940803F06EFB00287FF415
:10352000ECAE103E102EDDE923214FF01003E5DC58
:103530000C460132924BC8F804603444072ACDE9A6
:103540002324C8F8003000F350869DF86B2008F162
:1035500008080CE708991AF0100201F1040340F082
:1035600000841AF0400100F03E87089908930C8807
:1035700016466FE6089A1AF0100F02F1040340F0A5
:10358000EA831AF0400F089A00F0E183B2F9004094
:103590000893E61733461EE6089B002253F8041BE7
:1035A0008DF86B208DF8D4100893C5E6089C54F86C
:1035B000045B00268DF86B60002D00F0B386039A43
:1035C0001346013300F0158531462846FCF788FE86
:1035D0000790002801F04880079A0396511B069136
:1035E00021EAE1719DF86B200894029107960B96F1
:1035F00010960C9619E64AF010030293029B13F002
:10360000200600F06483089B073323F007035E68FD
:1036100053F8084B0893012320E699F800704AF00C
:10362000080A50E5089B53F8044B089330234AF0EE
:10363000020278278DF86C30524B139302928DF86A
:103640006D700026022309E6089A1AF0200F52F83E
:10365000043B089240F089831AF0100F40F05D8619
:103660001AF0400F40F020871AF4007F00F05586D2
:10367000049A1A704D46DCE699F800706C2F03BF6F
:1036800099F801704AF0200A09F101094AF0100A7C
:1036900019E599F80070682F03BF99F801704AF492
:1036A000007A09F101094AF0400A0CE599F8007026
:1036B0004AF0800A07E54A4612F8017B2A2F01F0FA
:1036C000B181A7F13003092B914698BF002200F287
:1036D000D78719F8017B02EB820203EB4202A7F1C4
:1036E0003003092BF5D90392EFE499F800704AF002
:1036F000040AE8E499F800708DF86B40E3E4089B55
:1037000099F8007053F8042B0592002AC0F22C841B
:103710000893D8E4584602F04DFB436816931846C8
:10372000FCF76EFD17900646584602F043FB83688F
:1037300015932021002E3FF43BAD159B99F80070A6
:10374000002B3FF4C0AC1B78002B3FF4BCAC4AF418
:10375000806AB8E499F800704AF0010AB3E49DF871
:103760006B3099F80070002B7FF4ADAC8DF86B10C6
:10377000A9E400BFFFFFEF7FB4910008B8910008F3
:10378000F8910008C4910008CDF808A0012B3FF47F
:1037900030AD022B4EAD12D1139A04F00F03240961
:1037A000D35C05F8013D44EA0674360954EA060381
:1037B000F3D14EAB5B1BDDF808A0069327E504F0C0
:1037C0000703E40844EA4674F608303354EA060175
:1037D0002A4605F8013DF2D102990846C00700F1DA
:1037E00012824EAB5B1B8A46069310E5652F40F3B1
:1037F000D580DDE90E0100220023FDF77FFA0028C5
:1038000000F08081239BBC4AC8F8002001330134BA
:103810000122072B24942393C8F8042000F33E854B
:1038200008F108081C9B0D9A934280F28882119B34
:10383000129A1C44C8E90023239B24940133072BCC
:10384000239300F3968308F108080D9B5D1E002D5D
:103850007FF7D0AD102D239AA84B40F32F851F463C
:10386000102623461AEE104A05E008F10808103D1C
:10387000102D40F3218501321033072AC8E9007664
:10388000CDE92323F1DD22AA2146584603F0B4F9FD
:1038900000287FF432ADDDE923230DF19408E6E73B
:1038A000059B029A9E1A002E7FF78BAD102E239A4D
:1038B000924B29DD1946099523461AEE105A0C46FB
:1038C00004E0103E102E08F1080819DD0132103313
:1038D0001021072ACDE92323C8F80040C8F80410B6
:1038E000EFDD22AA294658460DF1940803F084F929
:1038F00000287FF402AD103E102EDDE92323E5DC25
:103900002146099D1C460B4601323444072ACDE965
:103910002324C8F80030C8F8046000F3E984039B4E
:10392000069A9E1A002E08F108087FF750AD102E57
:10393000239A724B24DD21461C4643461AEE108A18
:1039400004E0103E102E03F1080316DD01321031A1
:103950001020072ACDE923211C605860F1DD22AA3E
:103960004146584603F048F900287FF4C6AC103EA3
:10397000102EDDE9232125ABE8DC984623460C46D2
:1039800001323444072ACDE92324C8F80030C8F8AE
:10399000046000F38E8108F1080818E5239B0D9A56
:1039A000C8F8005001345E1C012ACDE9236408F1F7
:1039B000080740F342810123072EC8F8043000F3C2
:1039C000A481119B129A01361C44072EC7E90023DB
:1039D000CDE9236400F3A68108370D9A731C013AE0
:1039E000099303930692DDE90E010022002307F1FB
:1039F0000808FDF783F9002840F02E81069A039B02
:103A00007A6001351444072B3D602494239300F31E
:103A1000968307F11003B21C474603929846149B05
:103A2000039A7B601C44072A1EAB249423923B60BC
:103A30007FF7E0AC1AEE101A22AA584603F0DCF821
:103A400000287FF45AAC249C0DF19408D2E41AEEBD
:103A5000101A22AA584603F0CFF800287FF44DAC84
:103A6000249C0DF1940895E41AEE101A22AA5846E7
:103A700003F0C2F800287FF440AC249C0DF19408B8
:103A80009BE4102D239B20DD1AEE107A102604E013
:103A9000103D102D08F1080817DD0133184A1034C5
:103AA000072BC8E90026CDE92334F1DD22AA3946E7
:103AB00058460DF1940803F09FF800287FF41DACE0
:103AC000103D102DDDE92334E7DC01330C4AC8F842
:103AD00004502C44072BCDE92334C8F800207FF78D
:103AE00092AC1AEE101A22AA584603F085F8002864
:103AF0007FF403AC249C86E4F4910008089200084B
:103B0000F89100081C9B002B40F38683DDE90C3202
:103B10009342A8BF1346002B1F460BDD1C44C8E987
:103B20000053239B24940133072B239300F32E850A
:103B300008F108080C9B002FA8BFDB1B002B1E46BA
:103B400000F332820C9B1AF4806F2B44069340F0F2
:103B500061821C9B0D9A934203DB1AF0010F00F067
:103B60009984119A12991444C8E90012239A249452
:103B70000132072A239200F3258508F108080D9ADF
:103B80000699AE18761AD51AAE42A8BF2E46002E58
:103B90000DDD239BC8F8001001333444072BC8F80F
:103BA00004602494239300F36F8508F10808002E25
:103BB000A8BFAD1B002D7FF71DAC102D239ABC4B69
:103BC00040F37C831F46102623461AEE104A05E078
:103BD00008F10808103D102D40F36E8301321033B8
:103BE000072AC8E90076CDE92323F1DD22AA214680
:103BF000584603F001F800287FF47FABDDE923236A
:103C00000DF19408E6E7302B3FF4D3AD3023023AB0
:103C100005F8013C4EAB9B1ADDF808A0069315464B
:103C2000FFF7F5BA039A002A7FF4E8AA9A46002320
:103C3000039306934EADFFF7EABA1AF0010F7FF433
:103C4000BAAE0122072EC8F8042000F378820233AE
:103C5000039308F11008E2E6069B002B7FF7DFAE26
:103C6000102B194640F3CA86914B099E2246102517
:103C70001C4688463B461AEE107A07E00833A8F146
:103C80001008B8F1100F40F3948301361032072E5C
:103C9000C3E90045CDE92362F0DD22AA3946584642
:103CA00002F0AAFF00287FF428ABDDE9236225ABF0
:103CB000E5E71AEE101A22AA584602F09DFF0028E6
:103CC0007FF41BAB249C0DF19408FFF780BB029A94
:103CD000089912F0100201F104034DD1029911F07C
:103CE000400100F09383089908930C88164601233D
:103CF000FFF7B4BA2D2364428DF86B3066EB4606AD
:103D0000CDF808A00123FFF7ACBA1AEE101A22AAC8
:103D1000584602F071FF00287FF4EFAADDE9236422
:103D200025AF4EE61AEE101A22AA584602F064FF9A
:103D300000287FF4E2AADDE9236425AF4DE61AF0FE
:103D4000010F3FF457AB72E54EADFFF760BA1AF4BE
:103D5000007F40F0AE8314680893E6173346FFF700
:103D60003ABA0C680893FFF775BA049A1A60D2172A
:103D70005A604D46FFF75DBB08930C680123FFF7BF
:103D80006DBADDE90E0102460B46FCF7E9FF00289B
:103D900040F0B885612F00F09485412F00F08F84AA
:103DA000039A27F02003511C029300F0A683472BAF
:103DB00004D1002A134608BF01230393DDE90E0155
:103DC0004AF480720029CDF824A04FF000039246F7
:103DD000C0F2178541EC180B0A930793029BB0EED3
:103DE000480AF0EE680A462B00F0FB83452B00F0F2
:103DF000338520AB01931DAB0093039A1CAB0221CA
:103E0000584600F019FF029B472B054640F03086CC
:103E1000099BDB0700F10185209B5B1B0D931C9B1D
:103E20000C93029B472B00F08283029B462B00F0F1
:103E3000028402990C9BFAB2412908BF0F3203F1A8
:103E4000FF3306BFD2B201210021002B1C93B8BF63
:103E50000C9B8DF87820BABFC3F101032D222B22D1
:103E6000092B8DF8792040F35C850DF18704114E04
:103E70002246104686FB0321DA17C2EBA10202EBB1
:103E80008201A3EB4101303100F8011C194663297E
:103E9000134600F1FF32ECDC3033D9B2831E9C4272
:103EA00002F8011C40F2D78513460DF17A0205E0B5
:103EB000089200086766666613F8011B02F8011B8A
:103EC0009C42F9D10DF189030DF17A021B1A1344BA
:103ED0001EAA9B1A14930D9B149A012B1A44069246
:103EE00040F36D85069B119A13440693099B069A2D
:103EF00023F4806343F4807A22EAE27200230B9376
:103F0000029210930C930A9B002B40F038839DF88B
:103F10006B200393FFF789B9CDF808A0FFF76EBBBC
:103F2000BA4B13931AF0200600F0F380089B073376
:103F300023F007035E6853F8084B08931AF0010F4B
:103F400009D054EA060306D030238DF86D704AF08C
:103F5000020A8DF86C302AF4806302930223FFF783
:103F60007DB9AB4B1393DDE7524205920893FFF7FF
:103F7000BEBB1AEE101A22AA584602F03DFE0028D7
:103F80007FF4BBA9249C0DF194085EE41AEE900A1C
:103F9000402101F021FF20602061002800F05F85B2
:103FA00040236361FFF757B8102E239A994B40F3D3
:103FB0003C82214610271C4643461AEE108A04E034
:103FC0000833103E102E40F32D8201321031072AA3
:103FD000C3E90047CDE92321F2DD22AA4146584634
:103FE00002F00AFE00287FF488A9DDE9232125AB31
:103FF000E7E7284603960894FCF702F920EAE07107
:104000009DF86B200690029107960B9610960C96E1
:10401000FFF70BB90D9B069ECDF818A0DDF840A068
:10402000CDF82490EB1803934246159FDDF85C9081
:104030000B9B0A951AEE108AA446BAF1000F30D0F5
:1040400093BB013F0AF1FF3A169BC2E90039239B5B
:104050000133CC44072BCDF890C0239363DC0832A6
:10406000039B38789B1B8342A8BF0346002B1C464A
:104070000CDD239801309C440728C2E90063CDF889
:1040800090C0239000F3278138780832002CACBF11
:10409000051B0546002D0BDC06440B9BBAF1000FF7
:1040A000CED1002B00F032820B9B013B0B93CBE770
:1040B000102D23981FDD1024634604E0103D102DC1
:1040C00002F1080216DD0130524910330728C2E917
:1040D0000014CDE92303F1DD22AA4146584602F03F
:1040E0008BFD00287FF409A9103D102DDDE9230385
:1040F00025AAE8DC9C460130464B5560AC440728B5
:10410000CDE9230C136000F34F823878083206445F
:10411000C3E708991AF0100201F1040300F0B1801E
:104120000C6808930AE722AA4146584602F064FD4B
:1041300000287FF4E2A8DDF890C025AA90E71AEEE7
:10414000101A22AA584602F057FD00287FF4D5A87D
:10415000239B249C013303930DF19C0825AF5EE45F
:10416000029B069703F48063002209EE10BACDF893
:104170001C80DDF854B00DF59C7A174698460CE08B
:104180000023204631460A22FCF728FE0A2C76F14D
:1041900000031CD304460E46AA4620460A220023EA
:1041A0003146FCF71BFE30320AF1FF3501370AF8C1
:1041B000012CB8F1000FE3D09BF800309F42DFD113
:1041C000FF2FDDD00A2C76F1000380F03C814EAB4E
:1041D0005B1BCDF854B00D9719EE10BADDE90678E7
:1041E000DDF808A00693FFF712B81AEE101A22AAFB
:1041F000584602F001FD00287FF47FA89DF86B204F
:10420000249C0DF19408FFF7B2B800BFC4910008D8
:10421000D891000808920008239AB949C8F80010FC
:10422000013201340121072A24942392C8F8041092
:1042300000F3228108F10808002B40F084800D9AD9
:104240000AF0010313433FF4D5A8119B129AC8E961
:104250000023239A01321C44072A2494239200F35A
:104260002F8108F108080D9BC8F8005001321C444A
:10427000072ACDE92324C8F804307FF7B9A8FFF74F
:10428000D9BB1AF0400100F0B880089908930C8857
:10429000164653E6CDF808A0FEF7ABBF1AEE101A8B
:1042A00022AA584602F0A8FC00287FF426A8249CE5
:1042B0000DF19408FFF7B6BA1C463B4601322C4478
:1042C000072AC8F80030C8F80450CDE923247FF746
:1042D0008FA8FFF7AFBB22AA4146584602F08CFCDC
:1042E00000287FF40AA83878DDF890C025AACDE62A
:1042F0001AEE101A22AA584602F07EFC00287EF41C
:10430000FCAF249C0DF19408FFF75BB8012BCDF8AE
:1043100008A07FF43EAAFEF771BF049A1A604D46CA
:10432000FFF787B8039B0795062B294628BF06236E
:1043300003952A460293734D089406930B911091AE
:104340000C91FEF772BF119A12991444C8E9001239
:10435000239A24940132072A239200F3B18008F1B2
:104360000808002BBFF67FAF5E421033664B80F229
:104370005A82214610271C4643461AEE108A04E052
:104380000833103E102E40F34B8201321031072AC1
:10439000C3E90047CDE92321F2DD22AA4146584670
:1043A00002F02AFC00287EF4A8AFDDE9232125AB2A
:1043B000E7E71F4623461446721C0392CDF8188087
:1043C00007F108023B60069B7B601C44039B24941E
:1043D000072B23933FF7B3AE0133039302F1080891
:1043E0001746FFF71CBB089A08931AF4007616BF0D
:1043F000147814680E46FEF72DBF089A08931AF435
:10440000007616BF147814680E4697E5029A12F4E7
:104410000076089A089316BF147814680E46012394
:10442000FEF71CBF984623460C4601323444072A47
:10443000CDE92324C8F80030C8F804604FDC08F147
:104440000808FFF77FBB179B1699ED1A1A462846F6
:1044500002F0A0FB9BF801300BB10BF1010B2046E1
:1044600031460A2200230027FCF7B8FC92E62D22F1
:104470008DF86B20FFF724B81AEE101A22AA5846BE
:1044800002F0BAFB00287EF438AF1C9B249C0DF18F
:104490009408D1E60D9A0699AE18761AD51AAE424E
:1044A000A8BF2E46FFF783BB049A1A804D46FEF73D
:1044B000C0BF92F900400893E6173346FEF78BBE63
:1044C0001AEE101A22AA584602F096FB00287EF433
:1044D00014AFDDE923241C9B0DF1940841E71AEE8B
:1044E000101A22AA584602F087FB00287EF405AF76
:1044F000249C0DF19408FFF725BB062303935DE48C
:10450000F4910008EC910008089200080A9D0D9BA8
:10451000DDF818A0DDF824901597EB189E42904620
:10452000324628BF1A4664460692FFF712BB0C9B20
:10453000DA1C02DB039A934204DD023F27F02003DA
:10454000029376E40D9B19460C9B994200F3AD80D3
:10455000099AD60740F11C82119A13440693099BCD
:104560005C0503D50C9B002B00F3EA81069B23EA34
:10457000E3730293672700230B931093C3E42D2268
:1045800000238DF86B200393FEF752BE1AEE101A2B
:1045900022AA584602F030FB00287EF4AEAE249CDE
:1045A0000DF19408FFF7C6BA22AA4146584602F018
:1045B00023FB00287EF4A1AE3878DDF890C025AA50
:1045C00006446AE51AEE101A22AA584602F014FBB5
:1045D00000287EF492AE1C9B249C0DF19408FFF7FA
:1045E000CEBA20AB01931DAB0093039A1CAB032101
:1045F000584600F021FB0378302B054600F0D181AE
:104600001C9B039A1344EC1851EC180B0022002356
:10461000FCF774FB10B12346FFF7FFBB209BA342BE
:10462000BFF4FBAB30215A1C20921970209B9C4296
:10463000F9D8FFF7F2BB099B0C99039A03F0010329
:10464000002943EA020340F3C981002B40F0A38113
:104650000C9B06936627099B5A0500F17281069B05
:1046600023EAE373029386E7039B9DF86B2008948B
:104670000293069303900B9010900C90FEF7D5BD1B
:1046800000230393FEF721BD1AEE101A22AA584602
:1046900002F0B2FA00287EF430AE1C9D0D9B249CE3
:1046A0005D1B0DF19408FFF782BA0D9B119A9A18C1
:1046B0000C9B0692002B40F388816727CBE73023C1
:1046C0008DF86C3058238DF86D304AF00203099351
:1046D000039B632B00F3EB800023079335AD0F9B07
:1046E00027F02002002B4AF4817A0292C0F28A80DD
:1046F0009DED0E8B00230A93612F00F0E780412F80
:104700007FF46CABB0EE480AF0EE680A1CA802F029
:104710000BFA00224FF07F5351EC100BFCF786F898
:1047200002460B4643EC192B00220023FCF7E6FA65
:1047300008B101231C93B44B0693039BCDF8608012
:10474000CDE90C790CEE10BA59EC198BDDF818B0E4
:10475000CDF840A05E1E2C46199505E000220023EE
:10476000013EFCF7CBFAE0B9A84B0022404649468F
:10477000FCF75CF889468046FCF708FB0546FBF72A
:10478000EBFF0B46024649464046FBF797FE1BF8F7
:104790000530A24604F8013B731C37468046894623
:1047A000DCD149EC198B9A4BCDF82CA051EC190BAC
:1047B00000223E46DDF840A00C9FDDF860800C959D
:1047C000DDF83490199D1CEE10BAFCF7BFFA0028F2
:1047D00051D151EC190B8E4B0022FCF78FFA10B11E
:1047E0000C9BD90747D4002E334606DB0133234404
:1047F000302204F8012BA342FBD1631B0D93FFF77A
:104800000EBB0793DDE90E3408EE103A04F10043C5
:1048100008EE903A2D230A936EE7039BEC18F3E61B
:10482000984623460C4601323444072ACDE9232416
:10483000C8F80030C8F804607FF713AD1AEE101AFC
:1048400022AA584602F0D8F900287EF456ADDDE9D8
:1048500023240DF1940806E5039B5C1C20AB019317
:104860001DAB009322461CAB0221584600F0E4F930
:1048700005462C44C8E60B9B2093069B14F8012C9C
:10488000D97B8A42234609D1302003F8010C209BB2
:104890005A1E209213F8012C9142F6D0392A0BBFF0
:1048A000069A0132927AD2B203F8012CA5E7591C7C
:1048B000584601F091FA0546002800F0BF800790A5
:1048C0000DE730238DF86C307823FCE61CA8B0EEA1
:1048D000480AF0EE680A02F027F900224FF07F53F1
:1048E00051EC100BFBF7A2FF02460B4643EC192BD1
:1048F00000220023FCF702FA08B101231C93454B68
:1049000006931AE70F9B444D002BB4BF2D229DF850
:104910006B20424BB8BF8DF86B202AF0800AFEF75F
:10492000D3BD00296DD130228DF87A200DF17B02A4
:10493000303302F8013B1EABD31A1493FFF7CBBA06
:10494000672715990B78FF2B00F0818000240C9AC3
:10495000204603E001300131FF2B08D0934206DAF4
:10496000D21A4B78002BF5D10B780134F4E715916E
:104970000C9210900B940B9A109B17991344069A63
:1049800001FB0323069323EAE3730293FFF7BBBA09
:104990000C9B0693E3E5119BCB181A4406926627FD
:1049A00059E651EC180B00220023FCF7A7F9002868
:1049B0007FF426AE039BC3F101031C9321E6099B00
:1049C000DB077FF593AAFFF78DBAC3F101031A4401
:1049D00022EAE273069202936727CCE523B901230A
:1049E000029366270693C6E5119B039A01331A4486
:1049F00022EAE273069202936627BCE5084B424620
:104A0000E0E40DF17A0293E7D8910008000030400D
:104A10000000E03FC4910008BC910008C09100086C
:104A200008920008089B99F80170914653F8042BEE
:104A3000089342EAE2720392FEF745BB1AEE101A9F
:104A40008B8943F0400213468A81FEF760BC002345
:104A50000B9310938FE702231493FFF73CBA1AEEDF
:104A6000902A0C2313604FF0FF330493FEF756BCDB
:104A7000039C2C44C8E500BF2DE9F8431D4D0646B4
:104A8000286898460F46914601F0A2F91A4B1B6818
:104A9000D3F848411CB3286865681F2D24DC4EB943
:104AA0006B1C0235636044F8257001F093F9002017
:104AB000BDE8F88304EB85010123C1F88890D4F8A0
:104AC0008821AB401A43022EC4F88821C1F808811E
:104AD000E6D1D4F88C211343C4F88C31E0E703F518
:104AE000A674C3F84841D6E701F074F94FF0FF30DF
:104AF000DEE700BF38040020B0910008024B13B17C
:104B00000248FEF7D5B9704700000000C92E000822
:104B10002DE9F04F03690C69A34283B0C0F287808E
:104B2000013C01F11405A30000F11408009355F8AD
:104B3000243058F82420013381469A4208EB84003F
:104B400005EB84070190B2FBF3F63BD30023AE469E
:104B500040469B465EF804AB02681FFA8AFC06FBDF
:104B60000C334FEA134C4FEA1A4A06FB0ACA1FFAE3
:104B700083FCABEB0C0C1FFA8AF31CFA82FCC3EB30
:104B8000124202EB2C421FFA8CFC4CEA024377459E
:104B900040F8043B4FEA224B4FEA1A43DAD2009B1B
:104BA00058F8033073B9019B043B984504D307E0E0
:104BB000984504F1FF3403D253F80429002AF7D0B2
:104BC000C9F81040484601F06DFE00282BDB013685
:104BD0004046002355F8041BD0F800C08AB29A1A48
:104BE0000B0C12FA8CF2C3EB1C4303EB224392B280
:104BF00042EA0342AF4240F8042B4FEA2343E9D292
:104C000058F8242008EB84036AB9043B984504D380
:104C100007E0984504F1FF3403D253F80429002A31
:104C2000F7D0C9F81040304603B0BDE8F08F00203F
:104C300003B0BDE8F08F00BF2DE9F04F2DED068BDE
:104C400099B08DED040B0291016C289D0A9257ECEE
:104C5000106B0446079341B1426C4A6001239340B4
:104C60008B6001F0BFFB00232364B7F10009B4BFE0
:104C7000012300232B607C4BBCBF29F00049CDF8F9
:104C8000149033EA090300F0B1809DED047B00220B
:104C900051EC170BB0EE478AF0EE678A0023FCF761
:104CA0002DF8804680B1079A01231360299B002BC1
:104CB00000F0DD826D481860431E0193019819B021
:104CC000BDEC068BBDE8F08F16AA17A92046B0EE02
:104CD000480AF0EE680A01F0ADFE5FEA1955824617
:104CE00040F09C80DDE91685454405F23243202BD7
:104CF00040F3AB83C3F1400305F2124009FA03F914
:104D000026FA00F049EA0000FBF716FD0123013DF9
:104D10000E93A1F1F871564B0022FBF7CFFB4CA389
:104D2000D3E90023FBF782FD4BA3D3E90023FBF774
:104D3000C7FB064628460F46FBF70EFD48A3D3E9FE
:104D40000023FBF773FD02460B4630463946FBF75E
:104D5000B7FB06460F46FCF719F8002283460023EE
:104D600030463946FBF7D4FF002840F07382A8EBA9
:104D700005056B1EBBF1160F039300F25F823D4BDE
:104D800003EBCB03D3E9002351EC180BFBF7C0FF77
:104D9000002875D000230D93039B002B0BF1FF3BE4
:104DA000C0F2528200230993BBF1000F6EDA099B17
:104DB000CDF818B0A3EB0B030993CBF100030C93D0
:104DC000029B092B4FF0000B6AD8052B40F33B8365
:104DD000043B02930025029B023B032B00F26F86EB
:104DE000DFE813F041043E0436041904079A42F246
:104DF0000F73C9F31309136059EA06031FD1299BE6
:104E0000002B00F06B861C4B01930833299A019804
:104E1000136019B0BDEC068BBDE8F08F18EE903A28
:104E2000C3F3130351EC180B43F07F51CDF83880D6
:104E3000A5F2FF35DDF8588041F440116BE7299B5E
:104E4000002B40F0D8830D4B019337E7AFF3008080
:104E500061436F63A787D23FB3C8608B288AC63F80
:104E6000FB799F501344D33F0000F07FF591000879
:104E70000000F83FF89200081C9200081892000801
:104E8000039B002BC0F28A840D900990039BCDF800
:104E900018B05B44039300230C93029B092B94D915
:104EA000002301254FF0FF3202930B9508920A93DD
:104EB000089B0F9300216164204601F06DFA019078
:104EC000002800F00486019B2364089B0E2B00F24F
:104ED000F680002D00F0F3800699002940F36084ED
:104EE000BF4B01F00F0203EBC203C805D3E9006713
:104EF0004FEA211540F1EC83BA4B51EC180BD3E982
:104F00000823FBF7BDFD41EC190B05F00F054FF031
:104F100003098DB1DFF8CC82E90709D5304639465F
:104F2000D8E90023FBF782FC09F1010906460F4688
:104F30006D1008F10808EFD13B4651EC190B3246D1
:104F4000FBF79EFD074688460D9B43B1A64B00220A
:104F500038464146FBF7DCFE002840F033854846E2
:104F6000FBF7FAFB3A464346FBF760FC9F4B0022F7
:104F7000FBF7A6FAA1F15073CDE910011193089B3C
:104F8000002B00F0E583069B1593089B1493019B6F
:104F9000414638465E1CFBF7F9FE149A904B03EB32
:104FA000C20313ED027B00F130058DED127BFBF7A0
:104FB000D3FB02460B4638464146FBF77FFA0B9A75
:104FC000EDB280468946002A00F0A984DDE912236B
:104FD00087490020FBF754FDDDE91023FBF76EFA4B
:104FE000019F02460B4643EC192B3D7042464B464F
:104FF000FBF7ACFE002840F0DD8400270AEE10AA83
:105000000AEE904ACDF840B03446BB46DDF850A0D9
:1050100057EC196B2AE00BF1010BD34549DA754BBC
:10502000304639460022FBF701FC724B002206464F
:105030000F4640464946FBF7F9FB89468046FBF799
:10504000A5FE0546FBF788FB02460B46404649464F
:10505000FBF734FA303504F8015B32463B468046B4
:105060008946FBF755FE002840F0F68442464B4641
:105070005D490020FBF722FA32463B46FBF748FE2B
:105080000028C8D0159B019A264601331AEE10AAB3
:105090001AEE904A0693354602E0954200F0C0842D
:1050A0002E4615F8013D392BF7D00133DBB22B70BA
:1050B000ABE1DDF840B01AEE10AA1AEE904A179B49
:1050C000002BC0F29B80069A0E2A00F39780444B77
:1050D00003EBC20393ED007B0A9BB0EE479AF0EE20
:1050E000679A002B1ADA089B002B17DC40F04B83E1
:1050F00051EC170B404B0022FBF798FB02460B4686
:1051000051EC180BFBF70EFEDDF820904D46002801
:1051100000F0C1820A9B019EDA43C2E257EC196B90
:1051200019EE102A3B4651EC180BFBF7A9FCFBF7D4
:105130002DFE8046FBF710FB19EE102A3B46FBF7CD
:1051400075FB019D0B46024651EC180BFBF7B6F9B7
:1051500008F1300305F8013B089B012B00F0868322
:105160004FF0010908EE10AA08EE904ACB46BA4665
:1051700019EE109A1C461DE04A4653463046394601
:10518000FBF77EFCFBF702FE8046FBF7E5FA4A469A
:105190005346FBF74BFB0BF1010B0B46024639461E
:1051A0003046FBF78BF908F13003A34505F8013BC6
:1051B00000F058830F4B0022FBF738FB002200233E
:1051C00006460F46FBF79AFD0028D5D0069B013313
:1051D00018EE10AA18EE904A06932E4615E100BF6D
:1051E000F8920008D09200080000F03F00001C4038
:1051F0000000E03F00002440000014400B9A002A09
:105200003DD0029A012A40F38482089B5F1E0C9BCA
:10521000BB42C0F25782DF1B089B002BC0F26C839D
:10522000039A1146099A194416461A4403910992A1
:105230000121204601F084F9054623E001230D9366
:10524000039B002BBFF6AEADC5F10103099300230C
:105250000393A9E55846FBF77FFA32463B46FBF736
:105260004DFD00287FF483AD0BF1FF3B7FE5844BC0
:105270000193019819B0BDEC068BBDE8F08F0C9F2F
:10528000099E0B9D002E0CDD039A002A09DD099969
:10529000B2421346A8BF3346C91AF61AD31A099167
:1052A00003930C9BCBB10B9B002B00F07082002F63
:1052B0000FDD29463A46204601F01CFA52460146C7
:1052C0000546204601F06AF951468246204601F023
:1052D00089F80C9BDA1B40F0FD820121204601F089
:1052E0002FF9BBF1000F814600F3B480029B012B24
:1052F00040F3858100270120BBF1000F40F0B5800D
:10530000039A104410F01F0000F09480C0F12003B5
:10531000042B40F3E783099BC0F11C0003440244C3
:10532000099306440392099B002B05DD51461A465A
:10533000204601F03FFA8246039B002B05DD4946DB
:105340001A46204601F036FA81460D9B002B40F0AC
:105350003781089B002B40F31D810B9B002B40F0F5
:105360009F80069B01330693019FDDF82080012674
:1053700007E0514600230A22204601F03DF801369D
:10538000824649465046FFF7C3FB464500F13000D0
:1053900007F8010BEDDB089A002AC8BF1646019AF0
:1053A000D8BF0126034616444FF00008514601229B
:1053B0002046029301F0FEF94946824601F072FA56
:1053C000002816F8012C40F38F810199731E04E028
:1053D000994200F0978113F8012D392A03F1010653
:1053E000F6D001321A704946204600F0FBFF65B145
:1053F000B8F1000F05D0A84503D04146204600F083
:10540000F1FF2946204600F0EDFF5146204600F00E
:10541000E9FF00233370079B1A46069B1360299B04
:10542000002B3FF44BAC01981E6019B0BDEC068B0D
:10543000BDE8F08F1C20099B03440993039B0344A0
:10544000064403936FE70125C5E4C3F1200306FA80
:1054500003F059E401465A46204601F04BF9029BFD
:10546000012B814640F3C8810027D9F8103009EBA1
:105470008303186901F014F8C0F1200040E700BF71
:10548000F4910008294600230A22204600F0B4FFC8
:105490000F9B002B054640F3FE82CDF81880089341
:1054A000002E00F30881002F40F0FD812F46049B61
:1054B0000199089803F001024B1E1844029B0B92BD
:1054C000134309908B460A9349465046FFF720FB49
:1054D00029460390504601F0E5F93A468046494690
:1054E000204601F001FA039BC26806463033002AC9
:1054F00042D101465046089301F0D4F93146049058
:10550000204600F06FFF049A089B1AB90A990029F7
:1055100000F0AB82B8F1000F0BF10106C0F28481FC
:10552000029948EA01080B9951EA080100F07C81D0
:10553000002A00F3E581099A8BF800305A4500F003
:10554000E881514600230A22204600F055FFBD4263
:10555000824629464FF000034FF00A02204613D03E
:1055600000F04AFF3946054600230A22204600F093
:1055700043FFB3460746A7E701462046049300F0E1
:1055800031FF049B0122C5E700F036FFB346054614
:10559000074699E7029B022B6CDC0B9B002B7FF4E8
:1055A0007FAF069B4946013350460693FFF7B0FA9A
:1055B000019E00F1300306F8013B4FF00008F5E6CC
:1055C0004946504601F06EF90028BFF6C2AE51467A
:1055D00000230A22204600F00FFF069B03F1FF384C
:1055E0000B9B8246002B7FF44DAF0F9B002B40F3AB
:1055F00049820893B8E6BA4B0193033306E4DDE928
:10560000041200297FF476AEC2F31303002B00F0DE
:10561000FE80049F6FE601230B930A9B069A1344B6
:105620000F930133012B1E460893B8BF01260021BA
:10563000172E61647FF740AC012204235B0003F165
:105640001400B042114602F10102F7D9616433E45B
:1056500001230B930A9E002E41DD0F960896E6E784
:1056600000230B93D9E700230B93F3E70F9BCDF8AF
:1056700018800893089B002B7FF44CAD4946052207
:10568000204600F0B9FE01468146504601F00AF975
:1056900000287FF73FAD019E069A312306F8013BB3
:1056A0000132531C49462046069300F09BFE002D14
:1056B0007FF4A7AEA9E629463246204601F07AF8E3
:1056C0000546F0E60C9B0C97FB1A9B440027A3E5CC
:1056D0004FF00209B0EE489AF0EE689A19E40123FF
:1056E0000A930893FFF7E4BB03D1029BDB073FF566
:1056F0006CAE731E01E013F8012D302A03F1010690
:10570000F9D070E6069B019A01330693312313709A
:1057100069E60E9A002A00F0518103F23343039A9E
:105720000C9F1A440392099A16461A4409927FE57F
:105730004846FBF711F83A464346FBF777F8694BC2
:105740000022FAF7BDFEA1F15073CDE910011193CB
:10575000654B384641460022FAF7B0FEDDE9108974
:1057600042464B4606460F46FBF7F0FA002840F04B
:10577000638130463946424609F10043FBF7C8FAD7
:1057800000283FF49CAC4FF000094D46C2E451465E
:105790000C9A204600F0AEFF82469EE50D9053E540
:1057A00000F03881069A514B554205F00F0203EB89
:1057B000C203D3E9002351EC180BFBF737F82D1186
:1057C0000746884600F07081494E00234FF00209D9
:1057D000EA0706D5D6E90023FBF728F809F1010905
:1057E00001236D1006F10806F2D1002B3FF4ACAB9B
:1057F00007468846FFF7A8BB049B002B7FF434AE16
:10580000DDE90412C2F31303002B7FF42DAE394FF0
:105810001740002F3FF46FAD099B01330993039BA1
:1058200001330393012766E50699002A01F101017E
:10583000069112DD514601222046029300F0BAFF84
:105840004946824601F02EF80028029B40F3FE8074
:10585000392B00F0EB80039B3133A8468BF80030E6
:105860003D46C0E518EE10AA18EE904A069B01339B
:10587000069302460B46FAF723FE53EC192B064615
:105880000F46FBF763FA48B953EC192B30463946FB
:10589000FBF734FA28B118F0010F02D0019AFFF794
:1058A000FFBB2E46B1E56968204600F075FD06464F
:1058B000002800F0FD802B6902339A0005F10C01ED
:1058C0000C30FAF75DFD31460122204600F072FFF0
:1058D0000746ECE55146204600F00CFF8246FCE40A
:1058E0001892000800001C4000001440F8920008C4
:1058F000D09200080000F07FDDE908239E1A97E4AB
:10590000069A392B02F10102069200F08F800133D2
:10591000A3E7069A0132A84606923D4646E5DDE930
:105920001223DDE91001FAF781FF019B1D70149B22
:10593000012B41EC190B00F0AC80149B019A13442D
:105940001D46704B002240464946FAF76FFF8946D4
:105950008046FBF71BFA0746FAF7FEFE3037024691
:105960000B4640464946FAF7A9FD06F8017BB542C9
:1059700080468946E5D1644B002251EC190BFAF7B9
:105980009FFD42464B46FBF7C3F9002858D153EC24
:10599000192B5D490020FAF791FD42464B46FBF773
:1059A000D5F900283FF48BAB2E46013D16F8013C9B
:1059B000302BF9D0159B0133069326E5169BC3F1D6
:1059C0003603ACE6089B002B3FF4B2AE0F9B002BD6
:1059D0007FF775AB069A013ACDE914323846494B48
:1059E00041460022FAF722FF02461746884609F18F
:1059F0000100FAF7B1FE3A464346FAF717FF434B68
:105A00000022FAF75DFDA1F15073CDE91001119369
:105A1000FFF7BDBA58EC187B4FF00209FFF794BAB4
:105A2000069B0133069331232B70EEE43922A846FE
:105A30008BF800203D46C8E44FF000094D462AE6A9
:105A4000159B019A01330693FFF72ABB7FF405AF3C
:105A5000DA077FF502AFFBE6159B013326461AEE07
:105A600010AA1AEE904A0693CFE4069A392B02F157
:105A7000010206920BF10106D8D0B8F1000F3FF7F2
:105A8000EAAEEAE6029B022B3FF7F0ADCDF81880B4
:105A900087E535466FE7029B022B3FF7E7AD0F9B8B
:105AA000CDF818800893FBE44FF00209FFF74CBAD9
:105AB000174B1848324640F2EA2101F027F9002539
:105AC00065642946204600F067FC019078B9104BC8
:105AD000104800224FF4D57101F018F90E4B0193D4
:105AE000FFF7ECB83FF41FACC0F13C00A3E4019B0E
:105AF000236401224FF0FF330A950F930B92089312
:105B0000FFF7DDBA000024400000E03F00001C4029
